:020000040800F2
:1000000000000220510E0008150D00081B0D00080D
:10001000210D0008270D00082D0D0008000000002C
:10002000000000000000000000000000330D000888
:10003000410D0008000000004F0D00085D0D000894
:10004000A10E0008A10E0008A10E0008A10E0008D4
:10005000A10E0008A10E0008A10E0008A10E0008C4
:10006000A10E0008A10E0008A10E0008A10E0008B4
:10007000A10E0008A10E0008A10E0008A10E0008A4
:10008000A10E0008A10E0008A10E0008A10E000894
:10009000690D0008A10E0008A10E0008A10E0008BD
:1000A000A10E0008A10E0008A10E0008A10E000874
:1000B0007D0D0008A10E0008A10E0008A10E000889
:1000C000A10E0008A10E0008A10E0008A10E000854
:1000D000A10E0008A10E0008A10E0008A10E000844
:1000E000A10E0008A10E0008A10E0008A10E000834
:1000F000A10E0008A10E0008A10E0008A10E000824
:10010000A10E0008A10E0008A10E0008A10E000813
:10011000A10E0008A10E0008A10E0008A10E000803
:10012000A10E0008A10E0008A10E0008A10E0008F3
:10013000A10E00080000000000000000A10E000851
:10014000910D0008A10E0008A10E0008A10E0008E4
:10015000A10E0008A10E0008A10E0008A10E0008C3
:10016000A10E0008A10E0008A10E0008A10E0008B3
:10017000A10E0008A10E0008000000000000000011
:08018000A10E0008A10E000809
:1001880010B5054C237833B9044B13B10448AFF3C9
:1001980000800123237010BD0C0000200000000027
:1001A8006C33000808B5034B1BB103490348AFF390
:1001B800008008BD00000000100000206C3300081B
:1001C80053B94AB9002908BF00281CBF4FF0FF31B6
:1001D8004FF0FF3000F070B9ADF1080C6DE904CEB6
:1001E80000F006F8DDF804E0DDE9022304B070470A
:1001F8002DE9F047089E0D4604460F46002B4AD1CC
:100208008A42944665D9B2FA82F343B102FA03FCF2
:10021800C3F120029F4020FA02F217439C404FEAA4
:100228001C4E1FFA8CF5B7FBFEF1220C0EFB117762
:1002380042EA074201FB05F090420AD91CEB020290
:1002480001F1FF3780F01C81904240F21981023998
:100258006244121AA4B2B2FBFEF00EFB102244EA6A
:10026800024400FB05F5A5420AD91CEB040400F181
:10027800FF3280F00781A54240F2048164440238CD
:1002880040EA0140641B00211EB1DC400023C6E99E
:100298000043BDE8F0878B4208D9002E00F0ED80BE
:1002A8000021C6E900050846BDE8F087B3FA83F1E6
:1002B800002949D1AB4202D3824200F2F880841A65
:1002C80065EB030201201746002EE2D0C6E900477D
:1002D800DFE702B9FFDEB2FA82F3002B40F090802C
:1002E8008A1A4FEA1C471FFA8CFE0121B2FBF7F568
:1002F80007FB1520220C42EA00420EFB05F0904253
:1003080008D91CEB020205F1FF3802D2904200F234
:10031800CB804546121AA4B2B2FBF7F007FB1022B5
:1003280044EA02440EFB00FEA64508D91CEB04046F
:1003380000F1FF3202D2A64500F2BB801046A4EBC2
:100348000E0440EA05409FE7C1F120078B4022FADE
:1003580007FC4CEA030C05FA01F420FA07F3FD4008
:100368004FEA1C492343B5FBF9F81FFA8CFE09FB39
:1003780018551C0C44EA054408FB0EF5A54202FA80
:1003880001F200FA01F00BD91CEB040408F1FF3A62
:1003980080F08880A54240F28580A8F10208644474
:1003A800641B9DB2B4FBF9F309FB134445EA04440A
:1003B80003FB0EFEA64508D91CEB040403F1FF3528
:1003C8006CD2A6456AD9023B644443EA0843A3FBBE
:1003D8000295A4EB0E04AC42C846AE4656D353D0A1
:1003E80056B1B0EB080264EB0E0404FA07F7CA40F2
:1003F800CC401743C6E9007418460021BDE8F087D1
:10040800C3F1200102FA03FC20FA01F225FA01F1F6
:100418009D402A434FEA1C471FFA8CFEB1FBF7F0B8
:1004280007FB1015110C41EA054100FB0EF58D4242
:1004380004FA03F408D91CEB010100F1FF382FD2AC
:100448008D422DD902386144491B92B2B1FBF7F5B0
:1004580007FB151142EA014205FB0EF1914208D94A
:100468001CEB020205F1FF3816D2914214D9023D65
:100478006244521A45EA004138E73146304608E7F7
:100488003946E6E61046FBE64845A9D2B9EB02082C
:1004980065EB0C0E013BA3E74546EAE72B4694E7DC
:1004A8004046D1E7D0467BE7023D624432E7084642
:1004B8000AE76444023842E7704700BF80B483B05B
:1004C80000AF786039607B6808221A617B68002277
:1004D8005A607B683A681A607B680022DA607B6839
:1004E80000229A607B6800221A7500BF0C37BD464F
:1004F8005DF8047B7047000080B582B000AF78607B
:100508000A4B0B4A0021786801F035F80346002BA6
:1005180001D000F0F7FA064B1B68122B02D1054BED
:1005280001221A6000BF0837BD4680BD6001002067
:10053800300100207801002080B582B000AF7860DB
:100548000A4B0B4A0121786801F015F80346002B85
:1005580001D000F0D7FA064B1B68A22B02D1054B3D
:1005680001221A6000BF0837BD4680BDF800002090
:10057800D80000200401002080B485B000AF786066
:1005880039600023BB730023FB7300233B730023F4
:100598007B730023FB720023FB732AE0FB7B002B99
:1005A80002D100237B7307E0FB7B3A68D31A1A4613
:1005B8007B6813441B787B73BA7B7B7B5340BB738C
:1005C80008233B730FE0BB7BFB72BB7B5B00BB73F9
:1005D80097F90B30002B03DABB7B83F01D03BB7349
:1005E8003B7B013B3B733B7B002BECD1FB7B01331B
:1005F800FB73FB7B3A689A42D0DCBB7B1846143706
:10060800BD465DF8047B704780B500AF00F046FC3E
:1006180000F0BEF800F01AFA00F018F900F070F9CE
:1006280000F0C8F94B4800F087FE4B4800F084FE04
:100638004A4802F039FAA2214948FFF73FFF494BDF
:1006480001221A70474B02225A70474B1A78454BC1
:100658009A710221404801F0A0F80346002B01D00E
:1006680000F050FA10213B4801F097F80346002BA0
:1006780001D000F047FA052000F0A2FB3B4B1B68B5
:10068800012B1DD1052000F09BFB374B1A78354B09
:100698009A71374B334A32492F4800F091FE03468E
:1006A800002B02D000F02EFA0AE02F4B1B78013302
:1006B800DAB22D4B1A70012201212E4801F066FD95
:1006C8002D4B1B68012B38D12B4B00221A600122BD
:1006D8000221284801F05AFD12212848FFF7EEFEB2
:1006E800274B1A78274B1A70254B5A78254B5A7086
:1006F800234B1A78224B5B781344DAB2214B9A7059
:1007080007211F48FFF738FF0346DAB21D4BDA719D
:100718001D4B1C4A19490F4800F052FE0346002B96
:1007280002D000F0EFF908E0164B9B78032B04D1B8
:10073800012204210F4801F029FD144B1B68012BED
:100748009CD1124B00221A6001220821094801F0AD
:100758001DFD93E7280000205000002078000020AD
:10076800480100206801002074010020A801002031
:10077800700100200004024004010020C000002095
:10078800F8000020F000002000010020780100207F
:1007980080B594B000AF07F120033022002118463D
:1007A80002F0B4FD07F10C0300221A605A609A6047
:1007B800DA601A610023BB60224B1B6C214A43F0AC
:1007C800805313641F4B1B6C03F08053BB60BB68E2
:1007D80000237B601C4B1B681B4A43F48043136057
:1007E800194B1B6803F480437B607B6802233B62E0
:1007F8000123FB6210233B630023BB6307F1200343
:10080800184601F0DDFC0346002B01D000F07AF910
:100818000F23FB6000233B6100237B610023BB6146
:100828000023FB6107F10C030021184601F040FF8B
:100838000346002B01D000F065F900BF5037BD46D4
:1008480080BD00BF003802400070004080B500AF96
:10085800284B294A1A60274B10225A60254B002240
:100868009A60244B0022DA60224B4FF450221A611E
:10087800204B4FF480025A611E4B00221A761D4B02
:1008880000225A761B4B00229A761A4B0022DA76FF
:10089800184B00221A77174B00225A77154800F098
:1008A8006FFB0346002B01D000F02CF9134B0E22EE
:1008B8005A61124B00229A61104B01221A610F4BA8
:1008C80000221A600D4B00225A600C4B00229A60DD
:1008D8000A4B0022DA60094B0122DA61074B012238
:1008E8001A62064B12225A620449024800F044FC7C
:1008F80000BF80BD280000200064004008010020DF
:1009080080B500AF284B294A1A60274B10225A603D
:10091800254B00229A60244B0022DA60224B4FF4C8
:1009280050221A61204B4FF480025A611E4B00225C
:100938001A761D4B00225A761B4B00229A761A4BC8
:100948000022DA76184B00221A77174B00225A77C2
:10095800154800F015FB0346002B01D000F0D2F833
:10096800134B08225A61124B00229A61104B002245
:100978001A610F4B00221A600D4B00225A600C4B73
:1009880000229A600A4B0022DA60094B0122DA61E0
:10099800074B01221A62064B0A225A62044902488E
:1009A80000F0EAFB00BF80BD500000200068004056
:1009B8007C01002080B586B000AF07F10803002253
:1009C8001A605A609A60DA603B4600221A605A60E0
:1009D8001D4B4FF080421A601B4B43F67F625A60F2
:1009E800194B00229A60184B0922DA60164B002234
:1009F8001A61154B00229A61134802F005F8034664
:100A0800002B01D000F07EF84FF48053BB6007F153
:100A1800080319460C4802F0BFF90346002B01D021
:100A280000F070F800233B6000237B603B461946CA
:100A3800054802F0DBFB0346002B01D000F062F80A
:100A480000BF1837BD4680BD7800002080B588B04B
:100A580000AF07F10C0300221A605A609A60DA604E
:100A68001A610023BB601F4B1B6B1E4A43F0020335
:100A780013631C4B1B6B03F00203BB60BB680023B2
:100A88007B60184B1B6B174A43F001031363154B2C
:100A98001B6B03F001037B607B680022072112486F
:100AA80001F074FB0723FB6001233B6100237B619A
:100AB8000023BB6107F10C0319460B4801F0CAF982
:100AC8000823FB604FF488133B6100237B6107F127
:100AD8000C031946044801F0BDF900BF2037BD4694
:100AE80080BD00BF003802400004024080B582B0DB
:100AF80000AF786000F078F900F08EF900BF083791
:100B0800BD4680BD80B400AF72B600BFFEE70000EE
:100B180080B483B000AF00237B60104B5B6C0F4A3E
:100B280043F4804353640D4B5B6C03F480437B6058
:100B38007B6800233B60094B1B6C084A43F08053D9
:100B48001364064B1B6C03F080533B603B6800BF8B
:100B58000C37BD465DF8047B704700BF0038024083
:100B680080B58CB000AF786007F11C0300221A60D2
:100B78005A609A60DA601A617B681B684A4A934235
:100B88003ED14A4B1B680133484A1360474B1B68E8
:100B9800012B0DD10023BB61454B1B6C444A43F02C
:100BA80000731364424B1B6C03F00073BB61BB6999
:100BB80000237B613E4B1B6B3D4A43F001031363EB
:100BC8003B4B1B6B03F001037B617B694FF4C05304
:100BD800FB6102233B6200237B620323BB62092380
:100BE800FB6207F11C031946324801F033F9002271
:100BF8000021142001F0F7F8142001F010F94FE05B
:100C08007B681B682C4A93424AD100233B61284BDE
:100C18001B6C274A43F080631364254B1B6C03F05D
:100C280080633B613B69214B1B6801331F4A13609A
:100C38001E4B1B68012B0DD10023FB601C4B1B6C4A
:100C48001B4A43F000731364194B1B6C03F00073C9
:100C5800FB60FB680023BB60154B1B6B144A43F019
:100C680002031363124B1B6B03F00203BB60BB68E8
:100C78006023FB6102233B6200237B620323BB6288
:100C88000923FB6207F11C0319460C4801F0E2F83E
:100C980000220021402001F0A6F8402001F0BFF812
:100CA80000BF3037BD4680BD00640040A40100206D
:100CB8000038024000000240006800400004024082
:100CC80080B584B000AF78607B681B68B3F1804F53
:100CD80015D10023FB600C4B1B6C0B4A43F001033E
:100CE8001364094B1B6C03F00103FB60FB680022D3
:100CF80000211C2001F077F81C2001F090F800BFBB
:100D08001037BD4680BD00BF0038024080B400AF38
:100D1800FEE780B400AFFEE780B400AFFEE780B422
:100D280000AFFEE780B400AFFEE780B400AF00BFBD
:100D3800BD465DF8047B704780B400AF00BFBD4678
:100D48005DF8047B704780B400AF00BFBD465DF816
:100D5800047B704780B500AF00F0F2F800BF80BD9B
:100D680080B500AF024800F03EFD00BF80BD00BF67
:100D78002800002080B500AF024801F005FF00BF41
:100D880080BD00BF7800002080B500AF024800F0A9
:100D98002AFD00BF80BD00BF5000002080B400AF16
:100DA800064BD3F88830054A43F47003C2F88830FC
:100DB80000BFBD465DF8047B704700BF00ED00E052
:100DC80080B483B000AF7860054A7B681360054B38
:100DD80000221A6000BF0C37BD465DF8047B7047DF
:100DE800AC010020A801002080B400AF084B1B68AC
:100DF800013B074A1360064B1B68002B02DC054BBE
:100E080001221A6000BFBD465DF8047B704700BF31
:100E1800AC010020A801002080B400AF084B1B687B
:100E2800013B074A1360064B1B68002B02DC054B8D
:100E380001221A6000BFBD465DF8047B704700BF01
:100E4800B4010020B0010020DFF834D00D480E496D
:100E58000E4A002302E0D458C4500433C4188C420C
:100E6800F9D30B4A0B4C002301E013600432A24271
:100E7800FBD3FFF793FF02F051FAFFF7C5FB70476A
:100E880000000220000000200C000020A43300080D
:100E98000C000020BC010020FEE7000080B500AF78
:100EA8000E4B1B680D4A43F4007313600B4B1B6811
:100EB8000A4A43F480631360084B1B68074A43F4EB
:100EC80080731360032000F083FF0F2000F008F800
:100ED800FFF71EFE0023184680BD00BF003C0240FD
:100EE80080B582B000AF7860124B1A68124B1B783D
:100EF80019464FF47A73B3FBF1F3B2FBF3F31846D8
:100F080000F09BFF0346002B01D001230EE07B6815
:100F18000F2B0AD8002279684FF0FF3000F063FFEA
:100F2800064A7B681360002300E00123184608374F
:100F3800BD4680BD000000200800002004000020FD
:100F480080B400AF064B1B781A46064B1B68134447
:100F5800044A136000BFBD465DF8047B704700BFBC
:100F680008000020B801002080B400AF034B1B68C4
:100F78001846BD465DF8047B704700BFB8010020E5
:100F880080B584B000AF78607B68002B01D1012365
:100F9800EDE07B6893F82030DBB2002B02D1786853
:100FA800FFF7DEFD7B681B681A687B681B6842F0E8
:100FB80001021A60FFF7D8FFF86012E0FFF7D4FFCC
:100FC8000246FB68D31A0A2B0BD97B685B6A43F489
:100FD80000327B685A627B68052283F8202001234F
:100FE800C5E07B681B685B6803F00103002BE5D054
:100FF8007B681B681A687B681B6822F002021A600B
:10100800FFF7B2FFF86012E0FFF7AEFF0246FB6899
:10101800D31A0A2B0BD97B685B6A43F400327B68CE
:101028005A627B68052283F8202001239FE07B68B1
:101038001B685B6803F00203002BE5D17B681B7E0D
:10104800012B08D17B681B681A687B681B6842F013
:1010580080021A6007E07B681B681A687B681B6857
:1010680022F080021A607B685B7E012B08D17B68C6
:101078001B681A687B681B6842F040021A6007E028
:101088007B681B681A687B681B6822F040021A603C
:101098007B689B7E012B08D17B681B681A687B687C
:1010A8001B6842F020021A6007E07B681B681A6818
:1010B8007B681B6822F020021A607B68DB7E012BAC
:1010C80008D17B681B681A687B681B6822F01002CD
:1010D8001A6007E07B681B681A687B681B6842F027
:1010E80010021A607B681B7F012B08D17B681B6884
:1010F8001A687B681B6842F008021A6007E07B6880
:101108001B681A687B681B6822F008021A607B68F3
:101118005B7F012B08D17B681B681A687B681B689A
:1011280042F004021A6007E07B681B681A687B6853
:101138001B6822F004021A607B689A687B68DB6887
:101148001A437B681B691A437B685B6942EA03019F
:101158007B685B685A1E7B681B680A43DA617B6898
:1011680000225A627B68012283F820200023184657
:101178001037BD4680BD000080B487B000AF7860EE
:1011880039607B681B687B617B6893F82030FB744F
:10119800FB7C012B03D0FB7C022B40F0BE80654B0F
:1011A8007B617B69D3F8003243F001027B69C3F8A5
:1011B80000227B69D3F8003223F47C527B69C3F8A0
:1011C80000227B69D3F800223B685B6A1B021A4342
:1011D8007B69C3F800223B685B6903F01F030122A7
:1011E80002FA03F3FB607B69D3F81C22FB68DB433C
:1011F8001A407B69C3F81C223B68DB69002B23D1AA
:101208007B69D3F80C22FB68DB431A407B69C3F87F
:101218000C223B68DB6819043B685B689BB23A6840
:10122800526919437B69483243F832103B689B681E
:1012380019043B681B689AB23B685B690A43796981
:101248004833DB000B445A603B68DB69012B22D131
:101258007B69D3F80C22FB681A437B69C3F80C221C
:101268003B681B6819043B685B689BB23A68526923
:1012780019437B69483243F832103B689B6819046C
:101288003B68DB689AB23B685B690A437969483313
:10129800DB000B445A603B689B69002B09D17B69D2
:1012A800D3F80422FB68DB431A407B69C3F80422A5
:1012B80007E07B69D3F80422FB681A437B69C3F80B
:1012C80004223B681B69002B09D17B69D3F81422DF
:1012D800FB68DB431A407B69C3F8142207E07B698B
:1012E800D3F81422FB681A437B69C3F814223B68BD
:1012F8001B6A012B07D17B69D3F81C22FB681A43B0
:101308007B69C3F81C227B69D3F8003223F0010201
:101318007B69C3F80022002306E07B685B6A43F41C
:1013280080227B685A62012318461C37BD465DF847
:10133800047B70470064004080B584B000AF7860DB
:101348007B6893F82030DBB2012B2ED17B68022218
:1013580083F820207B681B681A687B681B6822F06A
:1013680001021A60FFF700FEF86012E0FFF7FCFDCB
:101378000246FB68D31A0A2B0BD97B685B6A43F4D5
:1013880000327B685A627B68052283F8202001239B
:1013980012E07B681B685B6803F00103002BE5D152
:1013A8007B6800225A62002306E07B685B6A43F48C
:1013B80000227B685A62012318461037BD4680BD5B
:1013C80080B489B000AFF860B9607A603B60FB68B0
:1013D80093F82030FB77FB681B689B68BB61FB7F39
:1013E800012B03D0FB7F022B40F0B880BB6903F0D0
:1013F8008063002B0AD1BB6903F00063002B05D181
:10140800BB6903F08053002B00F0A080BB691B0E62
:1014180003F003037B617B69022B07D9FB685B6AD6
:1014280043F40002FB685A6201239EE001227B69B3
:101438009A403B681A60BB689B68002B0DD1BB685B
:101448001B685A05BB68DB68F96809681A437B6939
:1014580018331B010B441A600FE0BB685B68DA00A5
:10146800BB689B681A43BB68DB68F96809681A435C
:101478007B6918331B010B441A60FB681968BB6849
:101488001A697B6918331B010B4404331A60BB6863
:101498001B7D012B11D1FB681A687B6918331B016E
:1014A800134404331B68FA68116843F480727B693B
:1014B80018331B010B4404331A607B6807331B780D
:1014C8001A067B6806331B781B041A437B680533AE
:1014D8001B781B0213437A68043212781046FA68A4
:1014E800116843EA00027B691B010B4403F5C673CC
:1014F8001A607B6803331B781A067B6802331B78F3
:101508001B041A437B6801331B781B0213437A6858
:1015180012781046FA68116843EA00027B691B01D9
:101528000B4403F5C4731A60FB681A687B691833A7
:101538001B0113441B68FA68116843F001027B69B8
:1015480018331B010B441A6000230EE0FB685B6A2A
:1015580043F40012FB685A62012306E0FB685B6AE9
:1015680043F48022FB685A62012318462437BD469B
:101578005DF8047B704780B487B000AFF860B9604D
:101588007A603B60FB6893F82030FB75FB7D012B8C
:1015980003D0FB7D022B40F0F380BB68002B0ED1FB
:1015A800FB681B68DB6803F00303002B16D1FB689C
:1015B8005B6A43F40012FB685A620123E7E0FB68A8
:1015C8001B681B6903F00303002B07D1FB685B6AE8
:1015D80043F40012FB685A620123D8E0FB681A68DA
:1015E800BB681B331B0113441B6803F004027B68B0
:1015F8009A607B689B68002B0CD1FB681A68BB68F3
:101608001B331B0113441B685B0DC3F30A027B6881
:101618001A600BE0FB681A68BB681B331B01134494
:101628001B68DB0823F060427B685A60FB681A6815
:10163800BB681B331B0113441B6803F002027B6861
:10164800DA60FB681A68BB681B331B011344043358
:101658001B6803F00F027B681A61FB681A68BB6895
:101668001B331B01134404331B681B0ADAB27B6863
:101678009A61FB681A68BB681B331B011344043367
:101688001B681B0C9AB27B685A61FB681A68BB68B6
:101698001B01134403F5DC731B68DAB23B681A704C
:1016A800FB681A68BB681B01134403F5DC731B68ED
:1016B8001A0A3B680133D2B21A70FB681A68BB6811
:1016C8001B01134403F5DC731B681A0C3B680233D7
:1016D800D2B21A70FB681A68BB681B01134403F581
:1016E800DC731B681A0E3B680333D2B21A70FB68AE
:1016F8001A68BB681B01134403F5DE731A683B685C
:101708000433D2B21A70FB681A68BB681B01134411
:1017180003F5DE731B681A0A3B680533D2B21A70E8
:10172800FB681A68BB681B01134403F5DE731B686A
:101738001A0C3B680633D2B21A70FB681A68BB6889
:101748001B01134403F5DE731B681A0E3B6807334D
:10175800D2B21A70BB68002B08D1FB681B68DA6824
:10176800FB681B6842F02002DA6007E0FB681B6830
:101778001A69FB681B6842F020021A61002306E020
:10178800FB685B6A43F48022FB685A6201231846AF
:101798001C37BD465DF8047B704780B485B000AF48
:1017A800786039607B6893F82030FB73FB7B012BF2
:1017B80002D0FB7B022B09D17B681B6859697B68C7
:1017C8001B683A680A435A61002306E07B685B6A33
:1017D80043F480227B685A62012318461437BD46B9
:1017E8005DF8047B704780B58AB000AF786000234D
:1017F8007B627B681B685B693B627B681B685B6814
:10180800FB617B681B689B68BB617B681B68DB6846
:101818007B617B681B681B693B617B681B689B69F4
:10182800FB603B6A03F00103002B7CD0BB6903F02B
:101838000103002B23D07B681B6801229A60BB69D7
:1018480003F00203002B03D0786800F083F916E058
:10185800BB6903F00403002B04D07B6A43F40063E4
:101868007B620CE0BB6903F00803002B04D07B6AA1
:1018780043F480537B6202E0786800F089F9BB6921
:1018880003F48073002B24D07B681B684FF48072AC
:101898009A60BB6903F40073002B03D0786800F0EA
:1018A80063F916E0BB6903F48063002B04D07B6AFC
:1018B80043F400537B620CE0BB6903F40063002B24
:1018C80004D07B6A43F480437B6202E0786800F0CE
:1018D80069F9BB6903F48033002B24D07B681B684B
:1018E8004FF480329A60BB6903F40033002B03D0B5
:1018F800786800F043F916E0BB6903F48023002BF5
:1019080004D07B6A43F400437B620CE0BB6903F4B8
:101918000023002B04D07B6A43F480337B6202E00F
:10192800786800F049F93B6A03F00803002B0CD0F3
:101938007B6903F01003002B07D07B6A43F4007324
:101948007B627B681B681022DA603B6A03F0040341
:10195800002B0BD07B6903F00803002B06D07B68B3
:101968001B680822DA60786800F030F93B6A03F0F7
:101978000203002B09D07B681B68DB6803F00303B4
:10198800002B02D07868FEF7B7FD3B6A03F04003EE
:10199800002B0CD03B6903F01003002B07D07B6AA7
:1019A80043F480637B627B681B6810221A613B6A80
:1019B80003F02003002B0BD03B6903F00803002B36
:1019C80006D07B681B6808221A61786800F008F95D
:1019D8003B6A03F01003002B09D07B681B681B6966
:1019E80003F00303002B02D07868FEF7A5FD3B6ADD
:1019F80003F40033002B0BD0FB6903F01003002B1A
:101A080006D07B681B6810225A60786800F0F2F8EC
:101A18003B6A03F48033002B0BD0FB6903F0080307
:101A2800002B06D07B681B6808225A60786800F093
:101A3800EBF83B6A03F40043002B7BD0FB6903F00F
:101A48000403002B72D03B6A03F48073002B08D088
:101A5800FB6803F00103002B03D07B6A43F001030A
:101A68007B623B6A03F40073002B08D0FB6803F029
:101A78000203002B03D07B6A43F002037B623B6ABC
:101A880003F48063002B08D0FB6803F00403002BE9
:101A980003D07B6A43F004037B623B6A03F4006370
:101AA800002B43D0FB6803F07003002B3ED0FB688B
:101AB80003F07003602B2BD0602B2ED8502B22D034
:101AC800502B2AD8402B19D0402B26D8302B10D099
:101AD800302B22D8102B02D0202B05D01DE07B6A9A
:101AE80043F008037B6219E07B6A43F010037B62D2
:101AF80014E07B6A43F020037B620FE07B6A43F0CB
:101B080040037B620AE07B6A43F080037B6205E066
:101B18007B6A43F480737B6200E000BF7B681B68CC
:101B28009A697B681B6822F070029A617B681B685F
:101B380004225A607B6A002B08D07B685A6A7B6A49
:101B48001A437B685A62786800F068F800BF283743
:101B5800BD4680BD80B483B000AF786000BF0C374D
:101B6800BD465DF8047B704780B483B000AF7860F1
:101B780000BF0C37BD465DF8047B704780B483B066
:101B880000AF786000BF0C37BD465DF8047B704736
:101B980080B483B000AF786000BF0C37BD465DF8F5
:101BA800047B704780B483B000AF786000BF0C3707
:101BB800BD465DF8047B704780B483B000AF7860A1
:101BC80000BF0C37BD465DF8047B704780B483B016
:101BD80000AF786000BF0C37BD465DF8047B7047E6
:101BE80080B483B000AF786000BF0C37BD465DF8A5
:101BF800047B704780B483B000AF786000BF0C37B7
:101C0800BD465DF8047B704780B483B000AF786050
:101C180000BF0C37BD465DF8047B704780B483B0C5
:101C280000AF786000BF0C37BD465DF8047B704795
:101C380080B485B000AF78607B6803F00703FB6071
:101C48000C4BDB68BB60BA684FF6FF031340BB6000
:101C5800FB681A02BB68134343F0BF6343F40033C5
:101C6800BB60044ABB68D36000BF1437BD465DF84B
:101C7800047B704700ED00E080B400AF044BDB68E4
:101C88001B0A03F007031846BD465DF8047B70473E
:101C980000ED00E080B483B000AF0346FB7197F914
:101CA8000730002B0BDBFB7903F01F02074997F97C
:101CB80007305B09012000FA02F241F8232000BF37
:101CC8000C37BD465DF8047B704700BF00E100E0BB
:101CD80080B483B000AF03463960FB7197F90730D1
:101CE800002B0ADB3B68DAB20C4997F9073012017E
:101CF800D2B20B4483F800230AE03B68DAB2084901
:101D0800FB7903F00F03043B1201D2B20B441A769D
:101D180000BF0C37BD465DF8047B704700E100E06A
:101D280000ED00E080B489B000AFF860B9607A6077
:101D3800FB6803F00703FB61FB69C3F10703042B8E
:101D480028BF0423BB61FB690433062B02D9FB6956
:101D5800033B00E000237B614FF0FF32BB6902FACE
:101D680003F3DA43BB681A407B699A404FF0FF31AE
:101D78007B6901FA03F3D9437B680B401343184688
:101D88002437BD465DF8047B7047000080B582B0FB
:101D980000AF78607B68013BB3F1807F01D30123FA
:101DA8000FE00A4A7B68013B53600F214FF0FF3078
:101DB800FFF78EFF054B00229A60044B07221A603A
:101DC800002318460837BD4680BD00BF10E000E07C
:101DD80080B582B000AF78607868FFF729FF00BF50
:101DE8000837BD4680BD80B586B000AF0346B960F0
:101DF8007A60FB7300237B61FFF73EFF78617A68A6
:101E0800B9687869FFF78EFF024697F90F301146D7
:101E18001846FFF75DFF00BF1837BD4680BD80B587
:101E280082B000AF0346FB7197F907301846FFF7F9
:101E380031FF00BF0837BD4680BD80B582B000AF16
:101E480078607868FFF7A2FF034618460837BD4652
:101E580080BD000080B489B000AF7860396000238D
:101E68007B6100233B610023BB610023FB616BE1C5
:101E78000122FB6902FA03F37B613B681B687A69FC
:101E880013403B613A697B699A4240F05A813B684A
:101E98005B6803F00303012B05D03B685B6803F024
:101EA8000303022B30D17B689B68BB61FB695B0035
:101EB800032202FA03F3DB43BA691340BB613B68B0
:101EC800DA68FB695B0002FA03F3BA691343BB6182
:101ED8007B68BA699A607B685B68BB610122FB69B1
:101EE80002FA03F3DB43BA691340BB613B685B68E2
:101EF8001B0903F00102FB6902FA03F3BA691343F1
:101F0800BB617B68BA695A603B685B6803F003038E
:101F1800032B17D07B68DB68BB61FB695B0003227E
:101F280002FA03F3DB43BA691340BB613B689A6862
:101F3800FB695B0002FA03F3BA691343BB617B6870
:101F4800BA69DA603B685B6803F00303022B23D1AC
:101F5800FB69DA087B68083253F82230BB61FB69F9
:101F680003F007039B000F2202FA03F3DB43BA696D
:101F78001340BB613B681A69FB6903F007039B00C8
:101F880002FA03F3BA691343BB61FB69DA087B6899
:101F98000832B96943F822107B681B68BB61FB698A
:101FA8005B00032202FA03F3DB43BA691340BB6107
:101FB8003B685B6803F00302FB695B0002FA03F30A
:101FC800BA691343BB617B68BA691A603B685B688E
:101FD80003F44033002B00F0B4800023FB60604B17
:101FE8005B6C5F4A43F4804353645D4B5B6C03F462
:101FF8008043FB60FB685B4AFB699B08023352F82D
:102008002330BB61FB6903F003039B000F2202FA34
:1020180003F3DB43BA691340BB617B68524A9342BE
:102028002BD07B68514A934225D07B68504A934213
:102038001FD07B684F4A934219D07B684E4A93421F
:1020480013D07B684D4A93420DD07B684C4A93422B
:1020580007D07B684B4A934201D107230EE008233F
:102068000CE006230AE0052308E0042306E0032326
:1020780004E0022302E0012300E00023FA6902F0F1
:10208800030292009340BA691343BB613549FB6967
:102098009B080233BA6941F823203B4B9B68BB611C
:1020A8003B69DB43BA691340BB613B685B6803F477
:1020B8008013002B03D0BA693B691343BB61324AD2
:1020C800BB699360304BDB68BB613B69DB43BA6932
:1020D8001340BB613B685B6803F40013002B03D01B
:1020E800BA693B691343BB61274ABB69D360264B76
:1020F8005B68BB613B69DB43BA691340BB613B6802
:102108005B6803F40033002B03D0BA693B691343BF
:10211800BB611D4ABB6953601B4B1B68BB613B69B4
:10212800DB43BA691340BB613B685B6803F48033E7
:10213800002B03D0BA693B691343BB61124ABB69E0
:102148001360FB690133FB61FB690F2B7FF690AECF
:1021580000BF00BF2437BD465DF8047B704700BF51
:1021680000380240003801400000024000040240EC
:1021780000080240000C0240001002400014024017
:1021880000180240001C0240003C014080B483B0AB
:1021980000AF78600B467B8013467B707B78002B02
:1021A80003D07A887B689A6103E07B881A047B688D
:1021B8009A6100BF0C37BD465DF8047B704700008C
:1021C80080B586B000AF78607B68002B01D1012311
:1021D80067E27B681B6803F00103002B75D0884B0E
:1021E8009B6803F00C03042B0CD0854B9B6803F011
:1021F8000C03082B12D1824B5B6803F48003B3F500
:10220800800F0BD17E4B1B6803F40033002B5BD08F
:102218007B685B68002B57D1012342E27B685B68CF
:10222800B3F5803F06D1764B1B68754A43F480337B
:1022380013601DE07B685B68B3F5A02F0CD1704B71
:102248001B686F4A43F4802313606D4B1B686C4A0C
:1022580043F4803313600BE0694B1B68684A23F42E
:1022680080331360664B1B68654A23F48023136030
:102278007B685B68002B13D0FEF776FE386108E0B8
:10228800FEF772FE02463B69D31A642B01D9032379
:1022980007E25B4B1B6803F40033002BF0D014E01B
:1022A800FEF762FE386108E0FEF75EFE02463B6913
:1022B800D31A642B01D90323F3E1514B1B6803F4B0
:1022C8000033002BF0D100E000BF7B681B6803F0EF
:1022D8000203002B63D04A4B9B6803F00C03002BCE
:1022E8000BD0474B9B6803F00C03082B1CD1444BC5
:1022F8005B6803F48003002B16D1414B1B6803F085
:102308000203002B05D07B68DB68012B01D0012379
:10231800C7E13B4B1B6823F0F8027B681B69DB00B5
:10232800374913430B603AE07B68DB68002B20D009
:10233800344B01221A60FEF717FE386108E0FEF7F9
:1023480013FE02463B69D31A022B01D90323A8E1E5
:102358002B4B1B6803F00203002BF0D0284B1B68A3
:1023680023F0F8027B681B69DB00254913430B60E7
:1023780015E0244B00221A60FEF7F6FD386108E0EC
:10238800FEF7F2FD02463B69D31A022B01D903235B
:1023980087E11B4B1B6803F00203002BF0D17B681D
:1023A8001B6803F00803002B36D07B685B69002BA1
:1023B80016D0154B01221A60FEF7D6FD386108E0E9
:1023C800FEF7D2FD02463B69D31A022B01D903233B
:1023D80067E10B4B5B6F03F00203002BF0D01BE0AF
:1023E800094B00221A60FEF7BFFD38610EE0FEF7C8
:1023F800BBFD02463B69D31A022B07D9032350E1E0
:102408000038024000004742800E4742884B5B6F0D
:1024180003F00203002BEAD17B681B6803F0040376
:10242800002B00F097800023FB75814B1B6C03F099
:102438008053002B0FD10023BB607D4B1B6C7C4A63
:1024480043F0805313647A4B1B6C03F08053BB60DA
:10245800BB680123FB75774B1B6803F48073002B63
:1024680018D1744B1B68734A43F480731360FEF7EA
:102478007BFD386108E0FEF777FD02463B69D31A19
:10248800022B01D903230CE16A4B1B6803F4807308
:10249800002BF0D07B689B68012B06D1644B1B6F27
:1024A800634A43F0010313671CE07B689B68052BB4
:1024B8000CD15F4B1B6F5E4A43F0040313675C4B00
:1024C8001B6F5B4A43F0010313670BE0584B1B6F0C
:1024D800574A23F001031367554B1B6F544A23F0E7
:1024E800040313677B689B68002B15D0FEF73CFD3F
:1024F80038610AE0FEF738FD02463B69D31A41F21B
:102508008832934201D90323CBE0494B1B6F03F078
:102518000203002BEED014E0FEF726FD38610AE036
:10252800FEF722FD02463B69D31A41F288329342F4
:1025380001D90323B5E03E4B1B6F03F00203002BC8
:10254800EED1FB7D012B05D1394B1B6C384A23F0AA
:10255800805313647B689B69002B00F0A180344B87
:102568009B6803F00C03082B5CD07B689B69022BEB
:1025780041D1314B00221A60FEF7F6FC386108E0C1
:10258800FEF7F2FC02463B69D31A022B01D903235A
:1025980087E0274B1B6803F00073002BF0D17B68A2
:1025A800DA697B681B6A1A437B685B6A9B011A437A
:1025B8007B689B6A5B08013B1B041A437B68DB6AE8
:1025C8001B061B4913434B601B4B01221A60FEF785
:1025D800CBFC386108E0FEF7C7FC02463B69D31A1A
:1025E800022B01D903235CE0114B1B6803F0007335
:1025F800002BF0D054E0104B00221A60FEF7B4FC18
:10260800386108E0FEF7B0FC02463B69D31A022B9A
:1026180001D9032345E0064B1B6803F00073002B28
:10262800F0D13DE07B689B69012B07D1012338E09D
:102638000038024000700040600047421B4B5B6856
:10264800FB607B689B69012B28D0FB6803F4800240
:102658007B68DB699A4221D1FB6803F03F027B6803
:102668001B6A9A421AD1FA6847F6C07313407A680F
:10267800526A9201934211D1FB6803F440327B689D
:102688009B6A5B08013B1B049A4207D1FB6803F075
:1026980070627B68DB6A1B069A4201D0012300E066
:1026A800002318461837BD4680BD00BF00380240D9
:1026B80080B584B000AF786039607B68002B01D1A9
:1026C8000123CCE0684B1B6803F007033A689A4281
:1026D8000CD9654B3A68D2B21A70634B1B6803F089
:1026E80007033A689A4201D00123B8E07B681B6867
:1026F80003F00203002B20D07B681B6803F004035F
:10270800002B05D0594B9B68584A43F4E05393601B
:102718007B681B6803F00803002B05D0534B9B68AC
:10272800524A43F460439360504B9B6823F0F00295
:102738007B689B684D4913438B607B681B6803F07B
:102748000103002B44D07B685B68012B07D1474B02
:102758001B6803F40033002B19D101237FE07B6849
:102768005B68022B03D07B685B68032B07D13F4B68
:102778001B6803F00073002B09D101236FE03B4B6A
:102788001B6803F00203002B01D1012367E0374BDC
:102798009B6823F003027B685B68344913438B60B2
:1027A800FEF7E2FBF8600AE0FEF7DEFB0246FB6894
:1027B800D31A41F28832934201D903234FE02B4BBD
:1027C8009B6803F00C027B685B689B009A42EBD124
:1027D800254B1B6803F007033A689A420CD2224B38
:1027E8003A68D2B21A70204B1B6803F007033A68A4
:1027F8009A4201D0012332E07B681B6803F004038E
:10280800002B08D0194B9B6823F4E0527B68DB68E7
:10281800164913438B607B681B6803F00803002B81
:1028280009D0124B9B6823F460427B681B69DB006C
:102838000E4913438B6000F021F802460B4B9B684E
:102848001B0903F00F030A49CB5C22FA03F3094A78
:102858001360094B1B681846FEF742FB0023184615
:102868001037BD4680BD00BF003C02400038024022
:102878008433000800000020040000202DE9B04F38
:1028880090B000AF00237B630023FB6300233B630E
:102898000023BB63594B9B6803F00C03082B0DD036
:1028A800082B00F2A180002B02D0042B03D09BE060
:1028B800534BBB639BE0534BBB6398E04F4B5B6848
:1028C80003F03F037B634D4B5B6803F48003002BED
:1028D80028D04A4B5B689B0900223B627A623B6ABC
:1028E800C3F308000021474B03FB01F2002300FB60
:1028F80003F31344434AA0FB0212FA620A46BA627F
:10290800FA6A1344FB627B6B0022BB61FA61D7E968
:102918000623D7E90A01FDF753FC02460B46134686
:10292800FB6353E0354B5B689B0900223B617A618E
:102938003B69C3F3080A4FF0000B52465B464FF061
:1029480000004FF00001590141EAD26150010246EE
:102958000B46B2EB0A0863EB0B094FF000024FF08D
:1029680000034FEA891343EA98634FEA8812B2EBEF
:10297800080463EB09054FF000024FF00003EB0079
:1029880043EA5473E20014461D4614EB0A033B6005
:1029980045EB0B037B604FF000024FF00003D7E9D3
:1029A800004529468B02214643EA915321468A0273
:1029B800104619467B6B0022BB60FA60D7E90223F8
:1029C800FDF7FEFB02460B461346FB630B4B5B68A9
:1029D8001B0C03F0030301335B003B63FA6B3B6B97
:1029E800B2FBF3F3BB6302E0054BBB6300BFBB6BF9
:1029F80018464037BD46BDE8B08F00BF00380240DA
:102A08000024F40040787D0180B582B000AF786082
:102A18007B68002B01D1012341E07B6893F83D30AE
:102A2800DBB2002B06D17B68002283F83C20786853
:102A3800FEF746F97B68022283F83D207B681A6816
:102A48007B6804331946104600F096FA7B68012229
:102A580083F846207B68012283F83E207B680122A8
:102A680083F83F207B68012283F840207B6801229D
:102A780083F841207B68012283F842207B68012289
:102A880083F843207B68012283F844207B68012275
:102A980083F845207B68012283F83D2000231846EF
:102AA8000837BD4680BD000080B485B000AF7860AF
:102AB8007B6893F83D30DBB2012B01D001234EE057
:102AC8007B68022283F83D207B681B68DA687B6894
:102AD8001B6842F00102DA607B681B68234A934254
:102AE80022D07B681B68B3F1804F1DD07B681B68C0
:102AF8001F4A934218D07B681B681E4A934213D022
:102B08007B681B681C4A93420ED07B681B681B4A73
:102B1800934209D07B681B68194A934204D07B68AA
:102B28001B68184A934211D17B681B689B6803F0A5
:102B38000703FB60FB68062B10D07B681B681A68CC
:102B48007B681B6842F001021A6007E07B681B681B
:102B58001A687B681B6842F001021A600023184655
:102B68001437BD465DF8047B704700BF0000014084
:102B78000004004000080040000C00400004014030
:102B8800004001400018004080B582B000AF786076
:102B98007B681B681B6903F00203022B22D17B6848
:102BA8001B68DB6803F00203022B1BD17B681B68E0
:102BB8006FF002021A617B6801221A777B681B6832
:102BC8009B6903F00303002B03D0786800F0B5F984
:102BD80005E0786800F0A7F9786800F0B8F97B6834
:102BE80000221A777B681B681B6903F00403042B17
:102BF80022D17B681B68DB6803F00403042B1BD11C
:102C08007B681B686FF004021A617B6802221A77DE
:102C18007B681B689B6903F44073002B03D07868BA
:102C280000F08BF905E0786800F07DF9786800F02D
:102C38008EF97B6800221A777B681B681B6903F092
:102C48000803082B22D17B681B68DB6803F00803A4
:102C5800082B1BD17B681B686FF008021A617B6820
:102C680004221A777B681B68DB6903F00303002BD7
:102C780003D0786800F061F905E0786800F053F94E
:102C8800786800F064F97B6800221A777B681B6813
:102C98001B6903F01003102B22D17B681B68DB68CB
:102CA80003F01003102B1BD17B681B686FF0100218
:102CB8001A617B6808221A777B681B68DB6903F452
:102CC8004073002B03D0786800F037F905E0786886
:102CD80000F029F9786800F03AF97B6800221A7741
:102CE8007B681B681B6903F00103012B0ED17B680D
:102CF8001B68DB6803F00103012B07D17B681B68A5
:102D08006FF001021A617868FDF7F0FE7B681B68B6
:102D18001B6903F08003802B0ED17B681B68DB687E
:102D280003F08003802B07D17B681B686FF080025B
:102D38001A61786800F0E0FA7B681B681B6903F089
:102D48004003402B0ED17B681B68DB6803F040030F
:102D5800402B07D17B681B686FF040021A617868C6
:102D680000F0FFF87B681B681B6903F02003202B29
:102D78000ED17B681B68DB6803F02003202B07D18A
:102D88007B681B686FF020021A61786800F0AAFA65
:102D980000BF0837BD4680BD80B584B000AF7860FD
:102DA80039600023FB737B6893F83C30012B01D119
:102DB8000223B4E07B68012283F83C207B6802226E
:102DC80083F83D207B681B689B68BB60BB6823F069
:102DD8007703BB60BB6823F47F43BB607B681B68D9
:102DE800BA689A603B681B68B3F5005F3ED0B3F5DC
:102DF800005F00F28780B3F5805F00F08680B3F54E
:102E0800805F7FD8702B1AD0702B7BD8602B50D066
:102E1800602B77D8502B3CD0502B73D8402B58D0F0
:102E2800402B6FD8302B64D0302B6BD8202B60D040
:102E3800202B67D8002B5CD0102B5AD062E07B681F
:102E480018683B6899683B685A683B68DB6800F01B
:102E5800ADF97B681B689B68BB60BB6843F0770370
:102E6800BB607B681B68BA689A604FE07B6818682B
:102E78003B6899683B685A683B68DB6800F096F9DC
:102E88007B681B689A687B681B6842F480429A607A
:102E98003CE07B6818683B6859683B68DB681A4601
:102EA80000F00AF97B681B685021184600F063F9A6
:102EB8002CE07B6818683B6859683B68DB681A46F1
:102EC80000F029F97B681B686021184600F053F967
:102ED8001CE07B6818683B6859683B68DB681A46E1
:102EE80000F0EAF87B681B684021184600F043F9B7
:102EF8000CE07B681A683B681B681946104600F0AE
:102F08003AF903E00123FB7300E000BF7B6801226C
:102F180083F83D207B68002283F83C20FB7B184621
:102F28001037BD4680BD80B483B000AF786000BF65
:102F38000C37BD465DF8047B704780B483B000AFA2
:102F4800786000BF0C37BD465DF8047B704780B4DD
:102F580083B000AF786000BF0C37BD465DF8047BD6
:102F6800704780B483B000AF786000BF0C37BD46AF
:102F78005DF8047B7047000080B485B000AF7860CE
:102F880039607B681B68FB607B68404A934213D0BA
:102F98007B68B3F1804F0FD07B683D4A93420BD0DA
:102FA8007B683C4A934207D07B683B4A934203D0F4
:102FB8007B683A4A934208D1FB6823F07003FB60B0
:102FC8003B685B68FA681343FB607B682F4A93424F
:102FD8002BD07B68B3F1804F27D07B682C4A934273
:102FE80023D07B682B4A93421FD07B682A4A93429E
:102FF8001BD07B68294A934217D07B68284A9342A2
:1030080013D07B68274A93420FD07B68264A9342A5
:103018000BD07B68254A934207D07B68244A9342A9
:1030280003D07B68234A934208D1FB6823F440739A
:10303800FB603B68DB68FA681343FB60FB6823F0BE
:1030480080023B685B691343FB607B68FA681A601F
:103058003B689A687B68DA623B681A687B689A62A0
:103068007B680A4A934203D07B680C4A934203D197
:103078003B681A697B681A637B6801225A6100BF42
:103088001437BD465DF8047B704700BF000001405F
:103098000004004000080040000C0040000401400B
:1030A8000040014000440140004801400018004031
:1030B800001C00400020004080B487B000AFF860DA
:1030C800B9607A60FB681B6A7B61FB681B6A23F046
:1030D8000102FB681A62FB689B693B613B6923F04C
:1030E800F0033B617B681B013A6913433B617B69D1
:1030F80023F00A037B617A69BB6813437B61FB6831
:103108003A699A61FB687A691A6200BF1C37BD4642
:103118005DF8047B704780B487B000AFF860B96091
:103128007A60FB681B6A23F01002FB681A62FB686E
:103138009B697B61FB681B6A3B617B6923F4704375
:103148007B617B681B037A6913437B613B6923F0CE
:10315800A0033B61BB681B013A6913433B61FB68F1
:103168007A699A61FB683A691A6200BF1C37BD46E2
:103178005DF8047B704780B485B000AF7860396033
:103188007B689B68FB60FB6823F07003FB603A6810
:10319800FB68134343F00703FB607B68FA689A6097
:1031A80000BF1437BD465DF8047B704780B487B014
:1031B80000AFF860B9607A603B60FB689B687B6130
:1031C8007B6923F47F437B613B681A027B681A435F
:1031D800BB6813437A6913437B61FB687A699A6019
:1031E80000BF1C37BD465DF8047B704780B485B0CE
:1031F80000AF786039607B6893F83C30012B01D1CF
:1032080002235AE07B68012283F83C207B68022273
:1032180083F83D207B681B685B68FB607B681B68E4
:103228009B68BB60FB6823F07003FB603B681B680E
:10323800FA681343FB607B681B68FA685A607B680E
:103248001B68214A934222D07B681B68B3F1804FE8
:103258001DD07B681B681D4A934218D07B681B6889
:103268001B4A934213D07B681B681A4A93420ED0BC
:103278007B681B68184A934209D07B681B68174A09
:10328800934204D07B681B68154A93420CD1BB68F3
:1032980023F08003BB603B685B68BA681343BB607C
:1032A8007B681B68BA689A607B68012283F83D20B6
:1032B8007B68002283F83C20002318461437BD465B
:1032C8005DF8047B704700BF000001400004004027
:1032D80000080040000C004000040140004001408C
:1032E8000018004080B483B000AF786000BF0C378E
:1032F800BD465DF8047B704780B483B000AF78604A
:1033080000BF0C37BD465DF8047B70470244034696
:10331800934200D1704703F8011BF9E770B50D4DD2
:103328000D4C641BA4100026A64209D10B4D0C4C71
:1033380000F018F8641BA4100026A64205D170BD41
:1033480055F8043B98470136EEE755F8043B984793
:103358000136F2E79C3300089C3300089C330008D0
:10336800A0330008F8B500BFF8BC08BC9E467047FB
:0C337800F8B500BFF8BC08BC9E467047CA
:103384000000000000000000010203040607080911
:0833940064CEFF7F0100000080
:04339C00AD01000877
:0433A0008901000897
:0C33A4000024F4001000000001000000F4
:0400000508000E5190
:00000001FF
